:020000040800F2
:10000000002800204902000899020008990200080F
:1000100099020008990200089902000800000000F7
:10002000000000000000000000000000990200082D
:1000300099020008000000009902000899020008D7
:100040009902000899020008990200089902000824
:100050009902000899020008990200089902000814
:100060009902000899020008990200089902000804
:1000700099020008990200089902000899020008F4
:1000800099020008990200089902000899020008E4
:1000900099020008990200089902000899020008D4
:1000A00099020008990200089902000899020008C4
:1000B00099020008990200089902000899020008B4
:1000C00099020008990200089902000899020008A4
:1000D0009902000899020008990200089902000894
:1000E0009902000899020008000000009902000827
:1000F0009902000899020008990200089902000874
:100100009902000899020008990200089902000863
:100110009902000899020008990200089902000853
:100120009902000899020008990200089902000843
:1001300010B5054C237833B9044B13B10448AFF321
:1001400000800123237010BD00000020000000008B
:10015000E402000808B5034B1BB103490348AFF3A1
:10016000008008BD0000000004000020E402000838
:1001700080B483B000AF786000E000BF7B685A1E97
:100180007A60002BF9D100BF00BF0C37BD4680BCA0
:100190007047000080B500AF0A4B44F202021A60BB
:1001A000094B01221A600948FFF7E2FF054B0022C4
:1001B0001A60054B00221A600448FFF7D9FF00BF00
:1001C00080BD00BF0C0801400C0C014000350C0044
:1001D00080B500AF144B1B68134A43F00C03136047
:1001E000124B20221A60124B02221A60114B4FF060
:1001F00000721A60104B4FF400021A600F4B1B681C
:1002000003F40053002B02D1FFF7C4FFF6E70C4BB9
:1002100001221A600B48FFF7ABFF094B00221A605E
:100220000848FFF7A5FFE9E7181002400008014061
:10023000000C014004080140041001400810014076
:100240000C0C014000350C000D488546AFF30080D2
:100250000C480D490D4A002302E0D458C450043321
:10026000C4188C42F9D30A4A0A4C002301E01360F7
:100270000432A242FBD300F011F8FFF7A9FFFEE71A
:1002800000280020000000200000002004030008D7
:10029000000000201C000020FEE7000070B50026D2
:1002A0000C4D0D4C641BA410A64209D100F01AF8A5
:1002B00000260A4D0A4C641BA410A64205D170BD4D
:1002C00055F8043B98470136EEE755F8043B98474C
:1002D0000136F2E7FC020008FC020008FC020008FC
:1002E00000030008F8B500BFF8BC08BC9E46704784
:0C02F000F8B500BFF8BC08BC9E46704783
:0402FC0055010008A0
:0403000031010008BF
:0400000508000249A4
:00000001FF
