:020000040800F2
:100000000028002085020008D5020008D50200085B
:10001000D5020008D5020008D50200080000000043
:10002000000000000000000000000000D5020008F1
:10003000D502000800000000D5020008D502000823
:10004000D5020008D5020008D5020008D502000834
:10005000D5020008D5020008D5020008D502000824
:10006000D5020008D5020008D5020008D502000814
:10007000D5020008D5020008D5020008D502000804
:10008000D5020008D5020008D5020008D5020008F4
:10009000D5020008D5020008D5020008D5020008E4
:1000A000D5020008D5020008D5020008D5020008D4
:1000B000D5020008D5020008D5020008D5020008C4
:1000C000D5020008D5020008D5020008D5020008B4
:1000D000D5020008D5020008D5020008D5020008A4
:1000E000D5020008D502000800000000D502000873
:1000F000D5020008D5020008D5020008D502000884
:10010000D5020008D5020008D5020008D502000873
:10011000D5020008D5020008D5020008D502000863
:10012000D5020008D5020008D5020008D502000853
:1001300010B5054C237833B9044B13B10448AFF321
:1001400000800123237010BD00000020000000008B
:100150002003000808B5034B1BB103490348AFF364
:10016000008008BD000000000400002020030008FB
:1001700080B485B000AF78600023FB600DE0002301
:10018000BB6003E000BFBB680133BB60BB68B3F575
:100190007A7FF7D3FB680133FB60FA687B689A4289
:1001A000EDD300BF00BF1437BD4680BC70470000D0
:1001B00080B483B000AF0346FB7100BF064B1B68E1
:1001C00003F08003002BF9D0044AFB79136000BFD1
:1001D0000C37BD4680BC70470038014004380140F0
:1001E00080B582B000AF786006E07B685A1C7A6008
:1001F0001B781846FFF7DCFF7B681B78002BF4D1D7
:1002000000BF00BF0837BD4680BD000080B500AF0D
:10021000174B1B68164A43F4804343F00C031360EA
:10022000144BB0221A60134B1B68124A43F48063CC
:100230001360114B40F241321A60104B1B680F4A99
:1002400043F4005313600D4B1B680C4A43F0040346
:1002500013600A4B1B68094A43F0080313600848FF
:10026000FFF7BEFF4FF47A70FFF782FF00BFF6E79B
:100270001810024004080140083801400C380140C1
:10028000380300080D488546AFF300800C480D493F
:100290000D4A002302E0D458C4500433C4188C42E1
:1002A000F9D30A4A0A4C002301E013600432A24247
:1002B000FBD300F011F8FFF7A9FFFEE700280020AC
:1002C000000000200000002048030008000000207B
:1002D0001C000020FEE7000070B500260C4D0D4C00
:1002E000641BA410A64209D100F01AF800260A4D9A
:1002F0000A4C641BA410A64205D170BD55F8043BFE
:1003000098470136EEE755F8043B98470136F2E787
:1003100040030008400300084003000844030008AD
:10032000F8B500BFF8BC08BC9E467047F8B500BFE2
:08033000F8BC08BC9E467047B2
:0803380048656C6C6F0D0A00B2
:04034000550100085B
:04034400310100087B
:040000050800028568
:00000001FF
