:020000040800F2
:10000000002800205D020008AD020008AD020008D3
:10001000AD020008AD020008AD02000800000000BB
:10002000000000000000000000000000AD02000819
:10003000AD02000800000000AD020008AD0200089B
:10004000AD020008AD020008AD020008AD020008D4
:10005000AD020008AD020008AD020008AD020008C4
:10006000AD020008AD020008AD020008AD020008B4
:10007000AD020008AD020008AD020008AD020008A4
:10008000AD020008AD020008AD020008AD02000894
:10009000AD020008AD020008AD020008AD02000884
:1000A000AD020008AD020008AD020008AD02000874
:1000B000AD020008AD020008AD020008AD02000864
:1000C000AD020008AD020008AD020008AD02000854
:1000D000AD020008AD020008AD020008AD02000844
:1000E000AD020008AD02000800000000AD020008EB
:1000F000AD020008AD020008AD020008AD02000824
:10010000AD020008AD020008AD020008AD02000813
:10011000AD020008AD020008AD020008AD02000803
:10012000AD020008AD020008AD020008AD020008F3
:1001300010B5054C237833B9044B13B10448AFF321
:1001400000800123237010BD00000020000000008B
:10015000F802000808B5034B1BB103490348AFF38D
:10016000008008BD0000000004000020F802000824
:1001700080B483B000AF786000E000BF7B685A1E97
:100180007A60002BF9D100BF00BF0C37BD4680BCA0
:100190007047000080B500AF0F4B1B680E4A43F458
:1001A000804343F0020313600C4B1B680B4A43F07F
:1001B000010313600A48FFF7DBFF074B1B68064A81
:1001C000DB431360054B1B68044ADB4313600448A0
:1001D000FFF7CEFF00BF80BD0C0801400C0C0140B2
:1001E00000350C0080B500AF144B1B68134A43F078
:1001F0000C031360124B20221A60124B02221A6069
:10020000114B4FF080721A60104B4FF400021A60CD
:100210000F4B1B6803F40053002B02D1FFF7BAFF0A
:10022000F6E70C4B01221A600B48FFF7A1FF094BC0
:1002300000221A600848FFF79BFFE9E71810024008
:1002400000080140000C0140040801400410014076
:10025000081001400C0C014000350C000D4885468B
:10026000AFF300800C480D490D4A002302E0D4583A
:10027000C4500433C4188C42F9D30A4A0A4C0023F0
:1002800001E013600432A242FBD300F011F8FFF743
:10029000A9FFFEE700280020000000200000002049
:1002A00018030008000000201C000020FEE70000EA
:1002B00070B500260C4D0D4C641BA410A64209D14C
:1002C00000F01AF800260A4D0A4C641BA410A6423E
:1002D00005D170BD55F8043B98470136EEE755F857
:1002E000043B98470136F2E71003000810030008AA
:1002F0001003000814030008F8B500BFF8BC08BCE0
:100300009E467047F8B500BFF8BC08BC9E467047D3
:04031000550100088B
:0403140031010008AB
:040000050800025D90
:00000001FF
